{
  "contractName": "open_auction",
  "abi": [
    {
      "constant": true,
      "inputs": [],
      "name": "highestBidder",
      "outputs": [
        {
          "name": "",
          "type": "address"
        }
      ],
      "payable": false,
      "stateMutability": "view",
      "type": "function"
    },
    {
      "constant": true,
      "inputs": [],
      "name": "highestBid",
      "outputs": [
        {
          "name": "",
          "type": "uint256"
        }
      ],
      "payable": false,
      "stateMutability": "view",
      "type": "function"
    },
    {
      "constant": true,
      "inputs": [],
      "name": "bidder",
      "outputs": [
        {
          "name": "",
          "type": "address"
        }
      ],
      "payable": false,
      "stateMutability": "view",
      "type": "function"
    },
    {
      "inputs": [
        {
          "name": "_biddingTime",
          "type": "uint256"
        },
        {
          "name": "_bidder",
          "type": "address"
        }
      ],
      "payable": false,
      "stateMutability": "nonpayable",
      "type": "constructor"
    },
    {
      "anonymous": false,
      "inputs": [
        {
          "indexed": false,
          "name": "_bidder",
          "type": "address"
        },
        {
          "indexed": false,
          "name": "_amount",
          "type": "uint256"
        }
      ],
      "name": "HighestBidIncreased",
      "type": "event"
    },
    {
      "anonymous": false,
      "inputs": [
        {
          "indexed": false,
          "name": "_winner",
          "type": "address"
        },
        {
          "indexed": false,
          "name": "_amount",
          "type": "uint256"
        }
      ],
      "name": "AuctionEnded",
      "type": "event"
    },
    {
      "constant": false,
      "inputs": [],
      "name": "bid",
      "outputs": [],
      "payable": true,
      "stateMutability": "payable",
      "type": "function"
    },
    {
      "constant": false,
      "inputs": [],
      "name": "withdraw",
      "outputs": [
        {
          "name": "",
          "type": "bool"
        }
      ],
      "payable": false,
      "stateMutability": "nonpayable",
      "type": "function"
    },
    {
      "constant": false,
      "inputs": [],
      "name": "auctionEnd",
      "outputs": [],
      "payable": false,
      "stateMutability": "nonpayable",
      "type": "function"
    }
  ],
  "bytecode": "0x608060405234801561001057600080fd5b5060405160408061067f8339810180604052810190808051906020019092919080519060200190929190505050806000806101000a81548173ffffffffffffffffffffffffffffffffffffffff021916908373ffffffffffffffffffffffffffffffffffffffff16021790555081420160018190555050506105e8806100976000396000f300608060405260043610610078576000357c0100000000000000000000000000000000000000000000000000000000900463ffffffff1680631998aeef1461007d5780632a24f46c146100875780633ccfd60b1461009e57806391f90157146100cd578063d57bde7914610124578063f496d8821461014f575b600080fd5b6100856101a6565b005b34801561009357600080fd5b5061009c6102fa565b005b3480156100aa57600080fd5b506100b361043d565b604051808215151515815260200191505060405180910390f35b3480156100d957600080fd5b506100e261056b565b604051808273ffffffffffffffffffffffffffffffffffffffff1673ffffffffffffffffffffffffffffffffffffffff16815260200191505060405180910390f35b34801561013057600080fd5b50610139610591565b6040518082815260200191505060405180910390f35b34801561015b57600080fd5b50610164610597565b604051808273ffffffffffffffffffffffffffffffffffffffff1673ffffffffffffffffffffffffffffffffffffffff16815260200191505060405180910390f35b60015442111515156101b757600080fd5b600354341115156101c757600080fd5b60006003541415156102455760035460046000600260009054906101000a900473ffffffffffffffffffffffffffffffffffffffff1673ffffffffffffffffffffffffffffffffffffffff1673ffffffffffffffffffffffffffffffffffffffff168152602001908152602001600020600082825401925050819055505b33600260006101000a81548173ffffffffffffffffffffffffffffffffffffffff021916908373ffffffffffffffffffffffffffffffffffffffff160217905550346003819055507ff4757a49b326036464bec6fe419a4ae38c8a02ce3e68bf0809674f6aab8ad3003334604051808373ffffffffffffffffffffffffffffffffffffffff1673ffffffffffffffffffffffffffffffffffffffff1681526020018281526020019250505060405180910390a1565b600154421015151561030b57600080fd5b600560009054906101000a900460ff1615151561032757600080fd5b6001600560006101000a81548160ff0219169083151502179055507fdaec4582d5d9595688c8c98545fdd1c696d41c6aeaeb636737e84ed2f5c00eda600260009054906101000a900473ffffffffffffffffffffffffffffffffffffffff16600354604051808373ffffffffffffffffffffffffffffffffffffffff1673ffffffffffffffffffffffffffffffffffffffff1681526020018281526020019250505060405180910390a16000809054906101000a900473ffffffffffffffffffffffffffffffffffffffff1673ffffffffffffffffffffffffffffffffffffffff166108fc6003549081150290604051600060405180830381858888f1935050505015801561043a573d6000803e3d6000fd5b50565b600080600460003373ffffffffffffffffffffffffffffffffffffffff1673ffffffffffffffffffffffffffffffffffffffff1681526020019081526020016000205490506000811115610562576000600460003373ffffffffffffffffffffffffffffffffffffffff1673ffffffffffffffffffffffffffffffffffffffff168152602001908152602001600020819055503373ffffffffffffffffffffffffffffffffffffffff166108fc829081150290604051600060405180830381858888f1935050505015156105615780600460003373ffffffffffffffffffffffffffffffffffffffff1673ffffffffffffffffffffffffffffffffffffffff1681526020019081526020016000206000828254019250508190555060009150610567565b5b600191505b5090565b600260009054906101000a900473ffffffffffffffffffffffffffffffffffffffff1681565b60035481565b6000809054906101000a900473ffffffffffffffffffffffffffffffffffffffff16815600a165627a7a72305820a1360e8a58302256f682985f38cefbb0bb8c9a320ff5dead5c7c6b4a2685cf600029",
  "source": "pragma solidity ^0.4.23;\n\ncontract open_auction {\n\n\taddress public bidder;\n\tuint256 public auctionEnd;\n\n\t//current winner of the auction\n\taddress public highestBidder;\n\tuint256 public highestBid;\n\n\t//allowed withdrawals of the previous bid \n\t//this is the minimum amount which the bidder is needed to submit\n\t//amount will be returned together with the infrastructure development fund\n\t//given by the central authority\n\tmapping(address => uint) pendingReturn;\n\n\t//auction ende or not\n\tbool ended;\n\n\tevent HighestBidIncreased(address _bidder, uint256 _amount);\n\tevent AuctionEnded(address _winner, uint256 _amount);\n\n\tconstructor(uint256 _biddingTime, address _bidder) public {\n\n\t\tbidder = _bidder;\n\t\tauctionEnd = now + _biddingTime;\n\t}\n\n\tfunction bid() public payable {\n\n\t\t//check if auction already ended\n\t\trequire(now <= auctionEnd);\n\n\t\t//check the value send with the bid to the highest bid\n\t\trequire(msg.value > highestBid);\n\n\t\tif(highestBid != 0) {\n\n\t\t\tpendingReturn[highestBidder] += highestBid;\n\t\t}\n\n\t\thighestBidder = msg.sender;\n\t\thighestBid = msg.value;\n\t\temit HighestBidIncreased(msg.sender, msg.value);\n\t}\n\n\t//withdraw a bid\n\tfunction withdraw() public returns (bool) {\n\n\t\tuint256 amount = pendingReturn[msg.sender];\n\n\t\tif (amount > 0) {\n\n\t\t\tpendingReturn[msg.sender] = 0;\n\n\t\t\tif(!msg.sender.send(amount)) {\n\n\t\t\t\tpendingReturn[msg.sender] += amount;\n\t\t\t\treturn false;\n\t\t\t}\n\n\t\t}\n\n\t\treturn true;\n\t}\n\n\t//End of the auction\n\tfunction auctionEnd() public {\n\n\t\trequire(now >= auctionEnd);\n\t\trequire(!ended);\n\n\t\tended = true;\n\t\temit AuctionEnded(highestBidder, highestBid);\n\n\t\tbidder.transfer(highestBid);\n\t}\n}\n\n\n\n\n\n\n\n\n\n\n\n\n\n\n\n\n\n\n\n\n\n\n\n\n",
  "sourcePath": "/Users/herambadash/open_auction/contracts/open_auction.sol",
  "compiler": {
    "name": "solc",
    "version": "0.4.24+commit.e67f0147.Emscripten.clang"
  },
  "schemaVersion": "2.0.1",
  "updatedAt": "2018-08-07T07:27:08.124Z"
}